:100943001209A912096B8F0B8E0A8D098C081208E4
:10095300D9AF0BAE0AAD09AC0812083E1208837F6B
:08096300F47E0112091F80D887
:020883008F0CD8
:10088500E4F50DF50E7F0E1209957F011209957F8E
:1008950006120995E50C75F06484F50D2430FF12F8
:1008A500099FE50D75F064A4FFC3E50C9FF50E7572
:1008B500F00A84F50E2430FF12099FE50E75F00A43
:1008C500A4FFE50D75F064A42FFFC3E50C9F24304C
:0408D500FF02099F76
:1008D9007F0E1209957F011209957F061209957FEE
:1008E9005212099F7F4512099F7F4112099F7F4438
:1008F90012099F7F4912099F7F4E12099F7F471254
:0E090900099F7F2012099F7FC87E0002091FF0
:0A0995008FA0C2B0120917C2B222EF
:0A099F008FA0D2B0120917C2B222D5
:0509A900C2B3D2B72229
:10096B00C2B6D2B62084FD7F057E0012091FC2B726
:0D097B007F057E0012091FAC90E412080AEF
:01098800224C
:08091700C2B1D2B27F017E00E3
:10091F00E4FDFCC3ED9FEC9E5019758901758CFCAD
:10092F00758A66D28C0DBD00010C308DFDC28CC254
:03093F008D80E0C8
:010942002292
:1008000075F020800E75F010800575F0087D007E73
:10081000007F003392D530D503120875EC334010B9
:10082000EF33FFEE33FEED33FDEC33FCD5F0ED227C
:0E083000E5F0247EA2D513CC92E7CDCEFF22B8
:10083E00EDD2E7CD33EC3392D524814006E4FFFEB2
:10084E00FDFC22FCE4CFCECDCC24E0501174FF8011
:10085E00EDC3CC13CCCD13CDCE13CECF13CF0470AE
:07086E00F030D5DE02087531
:0300000002098969
:0C098900787FE4F6D8FD75810E0209436A
:0E087500C3E49FFFE49EFEE49DFDE49CFC2294
:00000001FF
