:04091F0002080000CA
:1008E300D2B1D2B2C3E5099FE5089E5019758CF8C1
:1008F300758ACCD28C308DFDC28DC28C0509E50979
:0709030070E2050880DE220E
:1008BA00D2B0D2B1D2B2C3E5099FE5089E501975EC
:1008CA008CF8758ACCD28C308DFDC28DC28C05090C
:0908DA00E50970E2050880DE2248
:10088C00C3E5099FE5089E5019758CF8758ACCD282
:10089C008C308DFDC28DC28C0509E50970E205080E
:0E08AC0080DE7F117E001208E37F1B0208BA77
:10090A007590FF758901C2B0C2B1C2B27F387E004C
:05091A0012088C80F1C1
:03000000020800F3
:0C080000787FE4F6D8FD758109020847F6
:10080C0002090AE493A3F8E493A34003F68001F2EF
:10081C0008DFF48029E493A3F85407240CC8C333ED
:10082C00C4540F4420C8834004F456800146F6DFBC
:10083C00E4800B010204081020408090091FE47E24
:10084C00019360BCA3FF543F30E509541FFEE493B1
:10085C00A360010ECF54C025E060A840B8E493A378
:10086C00FAE493A3F8E493A3C8C582C8CAC583CAA3
:10087C00F0A3C8C582C8CAC583CADFE9DEE780BE5B
:0109230000D3
:00000001FF
