:101019005370656564203A200054656D706572618E
:0810290074757265203A200085
:04104A00023000FF71
:100D5900E4F580121045120FE1120A4F8E088F092F
:100D6900AD07AC06EC120A168F2D8E2C8D2B8C2A12
:100D7900120F77AF2DAE2CAD2BAC2A120A4F120FE2
:100D890021AF2DAE2CAD2BAC2A120A4F120E02AF99
:100D99002DAE2CAD2BAC2A120A4F120C3B7FF47EE0
:100DA90001120FBDAC08AD09EC120A16AB2DAA2C25
:100DB900A92BA82A120998709A75800FAF2DAE2C0D
:100DC900AD2BAC2A120A4F120FBDE4F580AC30AD41
:100DD90031EC120A16AB2DAA2CA92BA82A1208034A
:100DE900120A4F8E2E8F2F120FBD121045120FE1CE
:090DF900120A4F8E088F0980AB2D
:020E02008F0A55
:100E0400780E7C007D007BFF7A1079197E007F09C3
:100E1400120BA0758920758DFA758780759850D24C
:100E24008EE4FFFE740E2FF8E6F5993099FDC29911
:100E34000FBF00010EEF64084E70E9E50A75F06417
:100E440084F50B75F064A4FFC3E50A9FFFE495F0F5
:100E5400FE7C007D0A120BD88F0CE50C75F00AA4F9
:100E6400FFE50B75F064A42FFFC3E50A9FF50DE4BD
:100E7400FEFF740B2FF8E62430F5993099FDC299E2
:100E84000FBF00010EEF64034E70E77F0D121003D5
:010E9400223B
:020C3B008F0A1E
:100C3D00781B7C007D007BFF7A1079227E007F0F70
:100C4D00120BA0758920758DFA758780759850D215
:100C5D008EE4FFFE741B2FF8E6F5993099FDC299CD
:100C6D000FBF00010EEF640E4E70E9E50A75F096A8
:100C7D00A4FFAEF07C007D4D120BD87C007D0A12D6
:100C8D000BC6AC06AD07E4120A168F0E8E0D8D0C39
:100C9D008C0BE4FBFA79C878421208FB120A4F8ECE
:100CAD000F8F10E510450F6003120FFFAE0FAF1041
:100CBD007C007D64120BC6AC06AD07E4120A16A8C3
:100CCD0004A905AA06AB07AF0EAE0DAD0CAC0B1209
:100CDD000803120A4F8E118F127C007D0A120BD859
:100CED008E118F12E510450F7006E5124511600D3E
:100CFD00E5122430FF1210037F2E121003AE11AF38
:100D0D00127C007D0A120BC6AA06AB07AE0FAF1000
:100D1D007D64120BC6EF2BFDEE3AFCE4120A16A809
:100D2D0004A905AA06AB07AF0EAE0DAD0CAC0B12A8
:100D3D000803120A4F8E138F14120FFF7FB012107B
:0B0D4D00037F431210037F0D12100300
:010D58002278
:040FFF00EF2430FFAC
:10100300758920758DFA758780759850D28E8F9962
:061013003099FDC2992294
:020F21008F0A35
:100F2300E4F50BF50C7F0E1210317F011210317FA7
:100F330006121031E50A75F06484F50B2430FF12B4
:100F4300103BE50B75F064A4FFC3E50A9FF50C7530
:100F5300F00A84F50C2430FF12103BE50C75F00AFF
:100F6300A4FFE50B75F064A42FFFC3E50A9F2430AB
:040F7300FF02103B2E
:100F77007F0E1210317F011210317F061210317F60
:100F87005212103B7F4512103B7F4112103B7F44AA
:100F970012103B7F4912103B7F4E12103B7F4712C6
:0E0FA700103B7F2012103B7FC87E00020FBD62
:0A1031008FA0C286120FB5C2B222D2
:0A103B008FA0D286120FB5C2B222B8
:05104500C2B3D2B72286
:100FE100C2B6D2B62084FD7F057E00120FBDC2B706
:0D0FF1007F057E00120FBDAC90E4120A1BBC
:010FFE0022D0
:080FB500C287D2B27F017E0069
:100FBD00E4FDFCC3ED9FEC9E5019758901758CFC09
:100FCD00758A66D28C0DBD00010C308DFDC28CC2B0
:030FDD008D80E024
:010FE00022EE
:10080000020ABBE86480F8E933E83360110460F061
:10081000ED33EC337009E8FCE9FDEAFEEBFF22045E
:1008200060DED3EB9FEA9EE99DE8C2E78CF0C2F759
:1008300095F0400CE8CCF8E9CDF9EACEFAEBCFFB25
:10084000120A8685D0F05804700320D5B3E80470EE
:10085000075002B2D5020AC592D5EC0460F7E4CC89
:10086000C0E0C398F8603B94186008400DD0E0FBEE
:10087000020A9DE4FBFAC9FC8028E830E406E4C9DA
:10088000FBE4CAFCE830E305E4C9CACBFCE8540742
:100890006010F8C3E913F9EA13FAEB13FBEC13FC4D
:1008A000D8F130F52FC3E49CFCEF9BFFEE9AFEEDF0
:1008B00099FDD0E0FBEF4E4D4C701222DB03020A93
:1008C000C2EC2CFCEF33FFEE33FEED33FDED30E7F1
:1008D000EB020A9DEF2BFFEE3AFEED39FDD0E0FB77
:1008E00050130BBB0003020AC5ED13FDEE13FEEF20
:0808F00013FFEC13FC020A9D4A
:1008F800020AC5EC5D046005E859047003020ABBEE
:10090800120A86580460F6EC4860F2EC7004FDFEAA
:10091800FF22C860DB2481C85009C39860025006D2
:10092800020AC29850CAF582E9294B4A7005AB827F
:10093800020AB175F0007C1A7880C3EF9BEE9AED3D
:1009480099400DC3EF9BFFEE9AFEED99FDE842F04A
:10095800DC23ACF0D0E0FFD0E0FED0E0FDAB82209D
:10096800E7101BEB60BAEC2CFCEF33FFEE33FEED27
:1009780033FD020A9DE803F830E705C0F075F00082
:10098800EF2FFFEE33FEED33FD40B830E7C280AA0B
:1009980074F8CC6480CCC86480C8F58204604FC306
:1009A800EB9FF5F0EA9E42F0E99D42F0E89C45F0A5
:1009B800603C501DE5825FFFE582D313CB5BCBF42F
:1009C8002B5582FB50280ABA002409B90020088058
:1009D8001DE5825BFBE582D313CF5FCFF4C3132FF2
:1009E8005582FF50090EBE00050DBD00010CC3EB7A
:1009F8009FF5F0EA9E42F0E99D42F0E89C45F060E0
:090A080007CC4820E701B3EC2201
:100A110075F020800E75F010800575F0087D007E60
:100A2100007F003392D530D503120C2DEC334010EA
:100A3100EF33FFEE33FEED33FDEC33FCD5F0ED2269
:0E0A4100E5F0247EA2D513CC92E7CDCEFF22A5
:100A4F00EDD2E7CD33EC3392D524814006E4FFFE9F
:100A5F00FDFC22FCE4CFCECDCC24E0501174FF80FE
:100A6F00EDC3CC13CCCD13CDCE13CECF13CF04709B
:070A7F00F030D5DE020C2D62
:100A8600E9D2E7C933E833F892D5EDD2E7CD33ECB6
:070A960033FC5002B2D5222F
:100A9D00EC30E7100FBF000C0EBE00080DBD0004BA
:100AAD000BEB6014A2D5EB13FCED92E7FD2274FF66
:100ABD00FCFDFEFF22E480F8A2D574FF13FC7D80BF
:030ACD00E480EFD3
:03000000020E9558
:0C0E9500787FE4F6D8FD758131020EDC98
:100AD000E709F608DFFA8046E709F208DFFA803E08
:100AE00088828C83E709F0A3DFFA8032E309F608F5
:100AF000DFFA8078E309F208DFFA807088828C835D
:100B0000E309F0A3DFFA806489828A83E0A3F60810
:100B1000DFFA805889828A83E0A3F208DFFA804CEA
:100B200080D280FA80C680D4806980F280338010C1
:100B300080A680EA809A80A880DA80E280CA80332A
:100B400089828A83ECFAE493A3C8C582C8CCC583A2
:100B5000CCF0A3C8C582C8CCC583CCDFE9DEE78072
:100B60000D89828A83E493A3F608DFF9ECFAA9F0F1
:100B7000EDFB2289828A83ECFAE0A3C8C582C8CC47
:100B8000C583CCF0A3C8C582C8CCC583CCDFEADE60
:100B9000E880DB89828A83E493A3F208DFF980CCC2
:100BA00088F0EF60010E4E60C388F0ED2402B404BB
:100BB0000050B9F582EB2402B4040050AF23234562
:060BC0008223900B20735C
:100BC600EF8DF0A4A8F0CF8CF0A428CE8DF0A42E43
:020BD600FE22FD
:100BD800BC000BBE0029EF8DF084FFADF022E4CC01
:100BE800F875F008EF2FFFEE33FEEC33FCEE9DECCA
:100BF800984005FCEE9DFE0FD5F0E9E4CEFD22ED10
:100C0800F8F5F0EE8420D21CFEADF075F008EF2F59
:100C1800FFED33FD4007985006D5F0F222C398FD4A
:050C28000FD5F0EA22E7
:0E0C2D00C3E49FFFE49EFEE49DFDE49CFC22D8
:100EA100020D59E493A3F8E493A34003F68001F201
:100EB10008DFF48029E493A3F85407240CC8C33352
:100EC100C4540F4420C8834004F456800146F6DF21
:100ED100E4800B010204081020408090104AE47E57
:100EE100019360BCA3FF543F30E509541FFEE49316
:100EF100A360010ECF54C025E060A840B8E493A3DD
:100F0100FAE493A3F8E493A3C8C582C8CAC583CA07
:100F1100F0A3C8C582C8CAC583CADFE9DEE780BEBF
:01104E0000A1
:00000001FF
