:0E09D2004169736875000038000E0001008056
:10099C00E4FDFCC3ED9FEC9E5015E4FBFA0BBB0091
:0F09AC00010AEB64644A70F50DBD00010C80E494
:0109BB002219
:060923008B0B8A0C890D0C
:1009290078107C007D007BFF7A0979D87E007F08EA
:100939001208D0900000AF82EF25E02410F8E6FEFF
:1009490008E6FF4E601775B0028FA07F017E001286
:10095900099CE4F5B07F6412099CA380D9E4F50EE3
:10096900F50FAB0BAA0CA90D850F82850E83120812
:10097900F6601975B003F5A07F017E0012099C7518
:10098900B001050FE50F70DA050E80D67F027E00F3
:0309990002099CB4
:0509BC00E4F5A0F5B018
:0F09C1007BFF7A0979D28B088A09890A120923E8
:0209D00080EFB6
:030000000209E012
:0C09E000787FE4F6D8FD7581170209BC91
:10080000E709F608DFFA8046E709F208DFFA803EDA
:1008100088828C83E709F0A3DFFA8032E309F608C7
:10082000DFFA8078E309F208DFFA807088828C832F
:10083000E309F0A3DFFA806489828A83E0A3F608E3
:10084000DFFA805889828A83E0A3F208DFFA804CBD
:1008500080D280FA80C680D4806980F28033801094
:1008600080A680EA809A80A880DA80E280CA8033FD
:1008700089828A83ECFAE493A3C8C582C8CCC58375
:10088000CCF0A3C8C582C8CCC583CCDFE9DEE78045
:100890000D89828A83E493A3F608DFF9ECFAA9F0C4
:1008A000EDFB2289828A83ECFAE0A3C8C582C8CC1A
:1008B000C583CCF0A3C8C582C8CCC583CCDFEADE33
:1008C000E880DB89828A83E493A3F208DFF980CC95
:1008D00088F0EF60010E4E60C388F0ED2402B4048E
:1008E0000050B9F582EB2402B4040050AF23234535
:0608F00082239008507302
:1008F600BB010CE58229F582E5833AF583E02250B7
:1009060006E92582F8E622BBFE06E92582F8E22200
:0D091600E58229F582E5833AF583E493221A
:00000001FF
