:0408B9000208000031
:10088C00C2A0C2A130A00BD2A27F987E001208AEEB
:10089C00C2A230A1EBD2A27F327E001208AEC2A25D
:0208AC0080DEEC
:0B08AE00EF1FAC0670011E4C70F6221C
:03000000020800F3
:0C080000787FE4F6D8FD75810D020847F2
:10080C0002088CE493A3F8E493A34003F68001F26E
:10081C0008DFF48029E493A3F85407240CC8C333ED
:10082C00C4540F4420C8834004F456800146F6DFBC
:10083C00E4800B01020408102040809008B9E47E8B
:10084C00019360BCA3FF543F30E509541FFEE493B1
:10085C00A360010ECF54C025E060A840B8E493A378
:10086C00FAE493A3F8E493A3C8C582C8CAC583CAA3
:10087C00F0A3C8C582C8CAC583CADFE9DEE780BE5B
:0108BD00003A
:00000001FF
