:040CB7007F057E0037
:100CBB00E4FDFC758901C3ED9FEC9E5016758CFC11
:100CCB00758A66D28C308DFDC28CC28D0DBD000134
:030CDB000C80E3A7
:010CDE0022F3
:0F0C7B008F0B8E0A8D098C087F3C7E00120CBBFC
:100C8A00C2B3D2B7C2B6120CB7D2B62084FDC2B76D
:100C9A00120CB7AC90E4120A1B8F178E168D158CA6
:0C0CAA0014120CB7AF17AE16AD15AC1449
:010CB600221B
:0C0CDF007F0E120CEB7F01120CEB7F0665
:100CEB008FA0C286C287D2B27F017E00120CBBC21C
:020CFB00B22223
:060CFD007F007E007C4236
:100D0300120A4F8FA0D286C287D2B27F017E001211
:050D13000CBBC2B2227E
:080AF0008F178E168D158C1472
:100AF800E4F518F519FBFA79C87842AF171208FB24
:100B0800120A4F8F18EF2430FDE433FCE4120A1662
:100B1800120D03AF187E007C007D64120AD0AC066B
:100B2800AD07E4120A16A804A905AA06AB07AF1771
:100B3800AE16AD15AC14120803120A4F8F19E51939
:100B480075F00A84F5192430FDE433FCE4120A1622
:100B5800120D03E51975F00AA4FDACF0E51875F05F
:100B680064A42DFDE5F03CFCE4120A16A804A905CE
:100B7800AA06AB07AF17AE16AD15AC1412080312D0
:100B88000A4FEF2430FDE433FCE4120A16020D0389
:100C2C00120CDF7DA4120CFD7D8A120CFD7F007E60
:100C3C00007D827C42120D037F007E007D887C4209
:100C4C00120D037F007E007D927C42120D037F000B
:100C5C007E007D9C7C42120D037F007E007D8E7C8D
:0F0C6C0042120D037F007E007D007C42020D03CB
:100B9800E4F580120C2C120C8A120C7B8F0F8E0E2F
:100BA8008D0D8C0C7F3C7E00120CBBAF0FAE0EADD2
:100BB8000DAC0CAB0BAA0AA909A80812099870D6A3
:100BC800120CDFE4F50BF50AF509F508AF0BAE0AD0
:100BD800AD09AC08120AF07F2C7E01120CBB120C76
:100BE8008A120C7B8F0F8E0E8D0D8C0C120C838F3E
:100BF800138E128D118C10AF0FAE0EAD0DAC0CAB69
:100C08000BAA0AA909A80812099870D2AF13AE1244
:100C1800AD11AC10AB0FAA0EA90DA80C1209987053
:040C2800BD020BC836
:10080000020ABBE86480F8E933E83360110460F061
:10081000ED33EC337009E8FCE9FDEAFEEBFF22045E
:1008200060DED3EB9FEA9EE99DE8C2E78CF0C2F759
:1008300095F0400CE8CCF8E9CDF9EACEFAEBCFFB25
:10084000120A8685D0F05804700320D5B3E80470EE
:10085000075002B2D5020AC592D5EC0460F7E4CC89
:10086000C0E0C398F8603B94186008400DD0E0FBEE
:10087000020A9DE4FBFAC9FC8028E830E406E4C9DA
:10088000FBE4CAFCE830E305E4C9CACBFCE8540742
:100890006010F8C3E913F9EA13FAEB13FBEC13FC4D
:1008A000D8F130F52FC3E49CFCEF9BFFEE9AFEEDF0
:1008B00099FDD0E0FBEF4E4D4C701222DB03020A93
:1008C000C2EC2CFCEF33FFEE33FEED33FDED30E7F1
:1008D000EB020A9DEF2BFFEE3AFEED39FDD0E0FB77
:1008E00050130BBB0003020AC5ED13FDEE13FEEF20
:0808F00013FFEC13FC020A9D4A
:1008F800020AC5EC5D046005E859047003020ABBEE
:10090800120A86580460F6EC4860F2EC7004FDFEAA
:10091800FF22C860DB2481C85009C39860025006D2
:10092800020AC29850CAF582E9294B4A7005AB827F
:10093800020AB175F0007C1A7880C3EF9BEE9AED3D
:1009480099400DC3EF9BFFEE9AFEED99FDE842F04A
:10095800DC23ACF0D0E0FFD0E0FED0E0FDAB82209D
:10096800E7101BEB60BAEC2CFCEF33FFEE33FEED27
:1009780033FD020A9DE803F830E705C0F075F00082
:10098800EF2FFFEE33FEED33FD40B830E7C280AA0B
:1009980074F8CC6480CCC86480C8F58204604FC306
:1009A800EB9FF5F0EA9E42F0E99D42F0E89C45F0A5
:1009B800603C501DE5825FFFE582D313CB5BCBF42F
:1009C8002B5582FB50280ABA002409B90020088058
:1009D8001DE5825BFBE582D313CF5FCFF4C3132FF2
:1009E8005582FF50090EBE00050DBD00010CC3EB7A
:1009F8009FF5F0EA9E42F0E99D42F0E89C45F060E0
:090A080007CC4820E701B3EC2201
:100A110075F020800E75F010800575F0087D007E60
:100A2100007F003392D530D503120AE2EC33401037
:100A3100EF33FFEE33FEED33FDEC33FCD5F0ED2269
:0E0A4100E5F0247EA2D513CC92E7CDCEFF22A5
:100A4F00EDD2E7CD33EC3392D524814006E4FFFE9F
:100A5F00FDFC22FCE4CFCECDCC24E0501174FF80FE
:100A6F00EDC3CC13CCCD13CDCE13CECF13CF04709B
:070A7F00F030D5DE020AE2AF
:100A8600E9D2E7C933E833F892D5EDD2E7CD33ECB6
:070A960033FC5002B2D5222F
:100A9D00EC30E7100FBF000C0EBE00080DBD0004BA
:100AAD000BEB6014A2D5EB13FCED92E7FD2274FF66
:100ABD00FCFDFEFF22E480F8A2D574FF13FC7D80BF
:030ACD00E480EFD3
:03000000020D18D6
:0C0D1800787FE4F6D8FD758119020B9875
:100AD000EF8DF0A4A8F0CF8CF0A428CE8DF0A42E3A
:020AE000FE22F4
:0E0AE200C3E49FFFE49EFEE49DFDE49CFC2225
:00000001FF
