:030000000209955D
:0C099500787FE4F6D8FD75811C0208F69E
:10097400696E206F6E20636F6E646974696F6E00B8
:10098400696E206F666620636F6E646974696F6E4A
:010994000062
:1008F600E4F50AF50BC2A1758920758780758DFA16
:08090600759850D28E30A13229
:10090E00780C7C00FD7BFF7A097974FE7F1012084B
:10091E00D0E4F508F509740C2509F8E6F599309937
:10092E00FDC2990509E50970020508640A450870BB
:02093E00E522B0
:10094000780C7C007D007BFF7A0979847E007F1122
:100950001208D0E4F508F509740C2509F8E6F599B4
:100960003099FDC2990509E50970020508640A4538
:030970000870E527
:010973002261
:10080000E709F608DFFA8046E709F208DFFA803EDA
:1008100088828C83E709F0A3DFFA8032E309F608C7
:10082000DFFA8078E309F208DFFA807088828C832F
:10083000E309F0A3DFFA806489828A83E0A3F608E3
:10084000DFFA805889828A83E0A3F208DFFA804CBD
:1008500080D280FA80C680D4806980F28033801094
:1008600080A680EA809A80A880DA80E280CA8033FD
:1008700089828A83ECFAE493A3C8C582C8CCC58375
:10088000CCF0A3C8C582C8CCC583CCDFE9DEE78045
:100890000D89828A83E493A3F608DFF9ECFAA9F0C4
:1008A000EDFB2289828A83ECFAE0A3C8C582C8CC1A
:1008B000C583CCF0A3C8C582C8CCC583CCDFEADE33
:1008C000E880DB89828A83E493A3F208DFF980CC95
:1008D00088F0EF60010E4E60C388F0ED2402B4048E
:1008E0000050B9F582EB2402B4040050AF23234535
:0608F00082239008507302
:00000001FF
