:04097300C2B17F038B
:100977008F0EE50E600B7FE87E03120957150E8078
:02098700F1225B
:100957008E0F8F10E510450F60117F707E00120912
:0C0967004BE510151070ED150F80E92213
:10092D0074F6250DF50D74FF350CF50C740A250BB9
:0E093D00F50BE4350AF50A75B0F8AF0BAE0AFB
:0C094B00EF4E6007EF1F70F81E80F522D1
:10080000D2B0D2B1D2B2D290D291D292D293C2B05F
:100810007F03120977D2B07F03120977120973D2CE
:10082000B17F03120977C2B27F03120977D2B27F78
:04083000031209772F
:10083400E4F508F509750A05750BDCF50CF50D30C2
:1008440090030208F0E50B450A6022740A250DF5B1
:100854000DE4350CF50C74F6250BF50B74FF120939
:100864004075B0FCAF0DAE0C12094B80D8E50D45B8
:100874000C600F12092D75B0FAAF0DAE0C12094BB6
:1008840080EBE50B450A6022740A250DF50DE4356D
:100894000CF50C74F6250BF50B74FF12094075B0BA
:1008A400F9AF0DAE0C12094B80D8E50D450C600F65
:1008B40012092D75B0FEAF0DAE0C12094B80EBE59D
:1008C4000D450C600F12092D75B0FDAF0DAE0C1265
:1008D400094B80EBE50D450C600F12092D75B0FB3B
:1008E400AF0DAE0C12094B80EB75B0FF20910EC218
:1008F400B0120973D2B0D2B17F0112097720920EDF
:10090400C2B2120973D2B2D2B17F01120977309305
:1009140003020834C2B0C2B27F03120977D2B0D244
:06092400B27F0112097709
:03092A000208348C
:0300000002098969
:0C098900787FE4F6D8FD758110020800AC
:00000001FF
