:03000000020D945A
:0C0D9400787FE4F6D8FD758109020D405F
:100D77007F30120DA07F20120DA07F0D120DA02233
:100800007F31120DA07F20120DA07F10120DA07F4E
:1008100011120DA07F12120DA07F13120DA07F14D4
:10082000120DA07F15120DA07F16120DA07F1712BA
:100830000DA07F18120DA07F19120DA07F1A120DA6
:10084000A07F1B120DA07F1C120DA07F1D120DA0FA
:100850007F1E120DA07F1F120DA07F20120DA0225F
:100860007F32120DA07F20120DA07F20120DA07FDD
:1008700021120DA07F22120DA07F23120DA07F2434
:10088000120DA07F25120DA07F26120DA07F27122A
:100890000DA07F28120DA07F29120DA07F2A120D16
:1008A000A07F2B120DA07F2C120DA07F2D120DA06A
:1008B0007F2E120DA07F2F120DA07F20120DA022DF
:1008C0007F33120DA07F20120DA07F30120DA07F6C
:1008D00031120DA07F32120DA07F33120DA07F3494
:1008E000120DA07F35120DA07F36120DA07F37129A
:1008F0000DA07F38120DA07F39120DA07F3A120D86
:10090000A07F3B120DA07F3C120DA07F3D120DA0D9
:100910007F3E120DA07F3F120DA07F20120DA0225E
:100920007F34120DA07F20120DA07F40120DA07FFA
:1009300041120DA07F42120DA07F43120DA07F44F3
:10094000120DA07F45120DA07F46120DA07F471209
:100950000DA07F48120DA07F49120DA07F4A120DF5
:10096000A07F4B120DA07F4C120DA07F4D120DA049
:100970007F4E120DA07F4F120DA07F20120DA022DE
:100980007F35120DA07F20120DA07F50120DA07F89
:1009900051120DA07F52120DA07F53120DA07F5453
:1009A000120DA07F55120DA07F56120DA07F571279
:1009B0000DA07F58120DA07F59120DA07F5A120D65
:1009C000A07F5B120DA07F5C120DA07F5D120DA0B9
:1009D0007F5E120DA07F5F120DA07F20120DA0225E
:1009E0007F36120DA07F20120DA07F60120DA07F18
:1009F00061120DA07F62120DA07F63120DA07F64B3
:100A0000120DA07F65120DA07F66120DA07F6712E8
:100A10000DA07F68120DA07F69120DA07F6A120DD4
:100A2000A07F6B120DA07F6C120DA07F6D120DA028
:100A30007F6E120DA07F6F120DA07F20120DA022DD
:100A40007F37120DA07F20120DA07F70120DA07FA6
:100A500071120DA07F72120DA07F73120DA07F7412
:100A6000120DA07F75120DA07F76120DA07F771258
:100A70000DA07F78120DA07F79120DA07F7A120D44
:100A8000A07F7B120DA07F7C120DA07F7D120DA098
:100A90007F7E120DA07F7F120DA07F20120DA0225D
:100AA0007F38120DA07F20120DA07F80120DA07F35
:100AB00081120DA07F82120DA07F83120DA07F8472
:100AC000120DA07F85120DA07F86120DA07F8712C8
:100AD0000DA07F88120DA07F89120DA07F8A120DB4
:100AE000A07F8B120DA07F8C120DA07F8D120DA008
:100AF0007F8E120DA07F8F120DA07F20120DA022DD
:100B00007F39120DA07F20120DA07F90120DA07FC3
:100B100091120DA07F92120DA07F93120DA07F94D1
:100B2000120DA07F95120DA07F96120DA07F971237
:100B30000DA07F98120DA07F99120DA07F9A120D23
:100B4000A07F9B120DA07F9C120DA07F9D120DA077
:100B50007F9E120DA07F9F120DA07F20120DA0225C
:100B60007F41120DA07F20120DA07FA0120DA07F4B
:100B7000A1120DA07FA2120DA07FA3120DA07FA431
:100B8000120DA07FA5120DA07FA6120DA07FA712A7
:100B90000DA07FA8120DA07FA9120DA07FAA120D93
:100BA000A07FAB120DA07FAC120DA07FAD120DA0E7
:100BB0007FAE120DA07FAF120DA07F20120DA022DC
:100D5D007F42120DA07F20120DA07FB0120DA07F3B
:0A0D6D00BF120DA07F20120DA0227E
:100BC0007F43120DA07F20120DA07FC0120DA07FC9
:100BD000C1120DA07FC2120DA07FC3120DA07FC451
:100BE000120DA07FC5120DA07FC6120DA07FC712E7
:100BF0000DA07FC8120DA07FC9120DA07FCA120DD3
:100C0000A07FCB120DA07FCC120DA07FCD120DA026
:100C10007FCE120DA07FCF120DA07F20120DA0223B
:100C20007F44120DA07F20120DA07FD0120DA07F57
:100C3000D1120DA07FD2120DA07FD3120DA07FD4B0
:100C4000120DA07FD5120DA07FD6120DA07FD71256
:100C50000DA07FD8120DA07FD9120DA07FDA120D42
:100C6000A07FDB120DA07FDC120DA07FDD120DA096
:100C70007FDE120DA07FDF120DA07F20120DA022BB
:100C80007F45120DA07F20120DA07FE0120DA07FE6
:100C9000E1120DA07FE2120DA07FE3120DA07FE410
:100CA000120DA07FE5120DA07FE6120DA07FE712C6
:100CB0000DA07FE8120DA07FE9120DA07FEA120DB2
:100CC000A07FEB120DA07FEC120DA07FED120DA006
:100CD0007FEE120DA07FEF120DA07F20120DA0223B
:100CE0007F46120DA07F20120DA07FF0120DA07F75
:100CF000F1120DA07FF2120DA07FF3120DA07FF470
:100D0000120DA07FF5120DA07FF6120DA07FF71235
:100D10000DA07FF8120DA07FF9120DA07FFA120D21
:100D2000A07FFB120DA07FFC120DA07FFD120DA075
:100D30007FFE120DA07FFF120DA07F20120DA022BA
:0D0D8700120D77120800120860120D5D2297
:100D4000E4F508F509758920758780758DFA759821
:0C0D500050D28E120D87E509450860FAAC
:010D5C002274
:080DA0008F993099FDC29922E0
:00000001FF
