:0E0833007FD07E071208411208917FE87E03F5
:10084100E4FDFCC3ED9FEC9E5015E4FBFA0BBB00ED
:0F085100010ABA03F8BBE8F50DBD00010C80E405
:010860002275
:09086D00D292D291C293C29022F2
:09087600C292C291D293D29022E9
:09087F00D292C291C293D29022E0
:09088800C292D291D293C29022D7
:09089100C292C291C293C29022EE
:10080000D2A7D281D282D2A77FD07E07120841120E
:10081000086D12083712087612083312087F120882
:10082000331208887FD07E071208411208911208FF
:030830004180D331
:0300000002086192
:0C086100787FE4F6D8FD758107020800DE
:00000001FF
