:0300000002034AAE
:0C034A00787FE4F6D8FD758110020003F6
:0503330075B0FF7F031F
:100338008F0EE50E600B7FE87E03120317150E8003
:02034800F122A0
:100317008E0F8F10E510450F60117F707E0012035E
:0C0327000BE510151070ED150F80E92299
:1002ED0074F6250DF50D74FF350CF50C740A250B00
:0E02FD00F50BE4350AF50A75B0F8AF0BAE0A42
:0C030B00EF4E6007EF1F70F81E80F52217
:10000300E4F508F509750A05750BDCF50CF50DF536
:10001300B075B0FE7F0312033812033375B0FD7F52
:100023000312033812033375B0FB7F0312033875D1
:10003300B0FF7F030202D1AF90EF240970030202E5
:10004300D724FC70030202C424FE70030202B51419
:1000530070E5850A0A850B0B850C0C850D0DE50BE8
:10006300450A6029740A250DF50DE4350CF50C7469
:10007300F6250BF50B74FF350AF50A75B0FC120370
:100083000775B0FEAF0DAE0C12030B80D1850A0AC3
:10009300850B0B850C0C850D0DE50D450C60297446
:1000A300F6250DF50D74FF350CF50C740A250BF5CB
:1000B3000BE4350AF50A75B0FA12030775B0FEAF03
:1000C3000DAE0C12030B80D1850A0A850B0B850C30
:1000D3000C850D0DE50B450A6029740A250DF50DF8
:1000E300E4350CF50C74F6250BF50B74FF350AF5A6
:1000F3000A75B0FC12030775B0FDAF0DAE0C120309
:100103000B80D1850A0A850B0B850C0C850D0DE53B
:100113000D450C602974F6250DF50D74FF350CF5AE
:100123000C740A250BF50BE4350AF50A75B0F912C0
:10013300030775B0FDAF0DAE0C12030B80D1850A1A
:100143000A850B0B850C0C850D0DE50B450A602903
:10015300740A250DF50DE4350CF50C74F6250BF535
:100163000B74FF350AF50A75B0FA12030775B0FB75
:10017300AF0DAE0C12030B80D1850A0A850B0B85DC
:100183000C0C850D0DE50D450C602974F6250DF558
:100193000D74FF350CF50C740A250BF50BE4350AC9
:1001A300F50A75B0F912030775B0FBAF0DAE0C126B
:1001B300030B80D1850A0A850B0B850C0C850D0D6D
:1001C300E50B450A6022740A250DF50DE4350CF59F
:1001D3000C74F6250BF50B74FF12030075B0FCAF1E
:1001E3000DAE0C12030B80D8850A0A850B0B850C08
:1001F3000C850D0DE50D450C600F1202ED75B0FA7F
:10020300AF0DAE0C12030B80EB850A0A850B0B8531
:100213000C0C850D0DE50B450A6022740A250DF5BE
:100223000DE4350CF50C74F6250BF50B74FF120376
:100233000075B0F9AF0DAE0C12030B80D8850A0A16
:10024300850B0B850C0C850D0DE50D450C600F1210
:1002530002ED75B0FEAF0DAE0C12030B80EB850AF9
:100263000A850B0B850C0C850D0DE50D450C600FF8
:100273001202ED75B0FDAF0DAE0C12030B80EB85D2
:100283000A0A850B0B850C0C850D0DE50D450C60DD
:100293000F1202ED75B0FBAF0DAE0C12030B80EB2A
:1002A30075B0FF850A0A850B0B850C0C850D0D02B5
:1002B300003A75B0FC7F0312033875B0FF7F0180ED
:1002C3000D75B0F97F0312033875B0FF7F01120378
:1002D3003802003A75B0FA7F0312033812033375FC
:0A02E300B0FF7F0112033802003A59
:00000001FF
